:020000040800F2
:1000000028040020C9000008A7090008A509000865
:1000100000000000000000000000000000000000E0
:10002000000000000000000000000000AB09000814
:100030000000000000000000A9090008AD09000848
:10004000DB00000800000000DB000008DB00000807
:10005000DB000008DB000008DB000008DB00000814
:1000600000000000DB000008DB000008DB000008E7
:10007000DB000008DB000008DB00000800000000D7
:10008000DB000008DB00000800000000DB000008C7
:10009000DB000008DB000008DB000008DB000008D4
:1000A000DB000008DB000008DB000008DB000008C4
:1000B000DB0000080348854600F072F9004800475D
:1000C000F10E000828040020044880470448004737
:1000D000FEE7FEE7FEE7FEE7FEE7FEE7010A0008AF
:1000E000B500000830B50B4601460020202201244F
:1000F00009E00D46D5409D4205D31D469540491B5C
:100100002546954040191546521E002DF1DC30BDA4
:10011000D2B201E00270401C491EFBD2704700229F
:10012000F6E710B513460A4604461946FFF7F0FFF6
:10013000204610BDF8B502464A40D40F42004B009D
:1001400052085B089A4202D20246084611464A000B
:1001500023D0C30D4A00DDB2120EAD1A202D35DAC0
:1001600049020126490AF6058A19002C00D052429C
:1001700020214F1B1146B9402A411018C20D9A4246
:1001800021D0002C17D0012D08DCDA05801AD20FFF
:100190008019D207DBB200F0BFF8F8BDDA05801A8B
:1001A000012340001B06C01880185A428018CA0F4D
:1001B0001043490007E04908C2071143DA05801AD5
:1001C00080194008801800F09FF8F8BD61000122F6
:1001D000511A001BF7E70122D2075140AAE701227A
:1001E000D2075040A6E7024670B54A40D30FDB075E
:1001F00040002DD04A002AD0010E140E0002120237
:100200000919400A520A8418E50104465443000AB9
:10021000120A2E045043A4194219200CC543AA18EF
:10022000120C0125AD03521C521912047F3924040B
:1002300000D0521C104301D44000491EC2B20C062B
:10024000C0092018401C4008802A02D003E000208A
:1002500070BD40084000002900DA0020184370BD3E
:1002600070B502464A40D50F40004A00ED074008ED
:100270005208002814D0002A12D0C40DD30D410218
:100280000120C0055202490A520AE41A091812183C
:100290007D34914201D3641C00E04900002C01DA56
:1002A000002070BD0023914201D3891A0343400806
:1002B00049000028F7D100290AD0914202D101213A
:1002C000C90705E0914201D2012101E00121C943A2
:1002D000E005C018401900F017F870BD420005D0C5
:1002E0004200120E52428A4201DB00207047C905CB
:1002F000081870470122D207002800DB101A0029D5
:1003000000DB511A81427047002904DA401C490081
:1003100001D140084000704770B40024050C05D19D
:100320001024000402D1002921D01124050E01D18E
:1003300000020834050F01D10001241D850F01D1F1
:100340008000A41C002801DB4000641C002908D0A8
:1003500020252E1B0D46F540A14000D00121294348
:10036000084301061B1B000ADB1D02D5002070BCE0
:100370007047DB05181880180029F8DA401C49007E
:10038000F5D170BC400840007047C217C10F504003
:1003900010B54018CA0796230021FFF7BDFF10BD16
:1003A000064C0125064E05E0E36807CC2B430C3CC8
:1003B00098471034B442F7D3FFF780FE10100008BE
:1003C0003010000831B500F00BF8009C0546601CA9
:1003D00000D0641C00F004F8401BA042FAD338BDE2
:1003E00001480068704700000000002002480168D2
:1003F000491C0160704700000000002010B506484D
:100400000168102211430160002000F007F800F09D
:1004100017F8002010BD00000020024010B504466F
:1004200000F0BCF87D21C900FFF75CFE00F0A2FAE5
:1004300000222146501E00F017F8002010BD0000D9
:1004400008B5084881690122114381618169114021
:100450000091C26901040A43C261C069084000906A
:1004600008BD00000010024010B500F007FB10BDF1
:10047000F8B5054644480E460068C007C00FB042B4
:100480000AD24148016849084900314301600068C7
:10049000C007C00FB0425CD128783C4C800705D51E
:1004A0006068F0218843A968084360602878C00725
:1004B0003FD06868012813D02168022813D089072B
:1004C000002946DA61688908890001436160FFF705
:1004D00087FF6968074601290DD0022917D024E05B
:1004E00021688903ECE78901EAE7FFF779FFC11B7F
:1004F0002748814217D860680007800F0128F4D18F
:1005000017E0FFF76DFFC11B214881420BD86068DF
:100510000007800F0228F4D10BE0FFF761FFC11B39
:100520001B48814201D90320F8BD60680007800F95
:10053000F3D115480168C907C90FB1420BD9016849
:1005400049084900314301600068C007C00FB0424C
:1005500001D00120F8BD2878400706D56068072142
:1005600009028843E9680843606000F01DF861688B
:10057000084A0906090F515CC84007490860002075
:10058000FFF74CFF0020F8BD0020024000100240A1
:1005900088130000C00F0008040000200148006814
:1005A000704700000400002010B512A30FCB88B0E4
:1005B0006C460FC413A30FCB0FC416494A680C2016
:1005C000134603401448042B0FD0082B0DD193027F
:1005D0001B0F6C46E45CC96A04AB0907090F595C40
:1005E000D20304D5FFF77EFD604308B010BD0B4871
:1005F0006043FAE702030405060708090A0B0C0D1D
:100600000E0F10100102030405060708090A0B0C5F
:100610000D0E0F100010024000127A0000093D007C
:10062000FEB504460078D04DC00747D06868000783
:10063000800F012807D068680007800F022809D1C1
:100640006868C00306D52868800337D5606800282D
:100650007ED033E0012062680004012A11D08100BD
:10066000002A01D0052A10D02A6882432A6028680F
:10067000884328606068002814D0FFF7B1FE064662
:100680000CE0296801432960F4E72A680A432A60DC
:10069000F7E7FFF7A5FE801B64286FD82868800362
:1006A000F7D50BE0FFF79CFE064604E0FFF798FE47
:1006B000801B6428F1D828688003F7D420780126AD
:1006C000800700283BDA68680007800F07D0686859
:1006D0000007800F022809D16868C00306D4286883
:1006E000800715D5E068012832D111E0E0680028C4
:1006F000286815D030432860FFF772FE074604E0F3
:10070000FFF76EFEC01B0228C7D828688007F7D500
:100710002868F82188432169C900084328600EE051
:10072000400840002860FFF75BFE074604E0FFF743
:1007300057FEC01B0228B0D828688007F7D420785D
:10074000000724D5E0690028686A10D0304300E033
:1007500008E16862FFF744FE074604E0FFF740FE49
:10076000C01B022899D8686A8007F7D50FE04008B7
:1007700040006862FFF734FE074605E09DE0FFF7A2
:100780002FFEC01B022888D8686A8007F7D420781B
:1007900004274007002860DA00200190E869C000C3
:1007A00008D4E969B8060143E961E969014001201B
:1007B000009101906D480168C90511D40168821546
:1007C00011430160FFF70CFE009005E0FFF708FE03
:1007D0000099401A642870D864480068C005F5D5AF
:1007E000A06801280AD0002801D0052810D0286A66
:1007F000400840002862286AB84301E0286A304374
:100800002862A068002812D0FFF7EAFD00900AE0F5
:10081000286A38432862F1E7FFF7E2FD0099411AA0
:100820005348814249D8286A8007F5D50DE0FFF783
:10083000D7FD009006E0FFF7D3FD0099411A4C4820
:1008400081423AD8286A8007F5D40198002804D05C
:10085000E969012000078143E9612078C00635D5A8
:10086000606901280CD0401D686B23D03843686351
:10087000686B400840006863FFF7B2FD064622E05F
:10088000686B38436863686B30436863FFF7A8FDA3
:10089000064604E0FFF7A4FD801B02285BD8686BC6
:1008A0008007F7D5686BF8218843A169C900084320
:1008B00068630BE0B8436863F4E74CE0FFF790FD32
:1008C000801B022847D8686B8007F7D4206A00286D
:1008D00046D069680907890F022943D001263606E8
:1008E0000228286805D0B0432860FFF779FD044648
:1008F00033E0B0432860FFF773FD074604E0FFF7DD
:100900006FFDC01B022826D828688001F7D4E86A4A
:10091000E16A000900010843E862616AA06A0843CD
:1009200069683D2212049143084368602868304397
:100930002860FFF755FD044604E0FFF751FD001B5A
:10094000022808D828688001F7D509E0FFF748FD9C
:10095000001B022801D90320FEBD28688001F5D4C0
:100960000020FEBD0120FEBD0010024000700040CE
:1009700088130000094910B5401E884201D90120A2
:1009800010BD074C60610321081F00F077F80020BC
:10099000A06107202061002010BD0000FFFFFF00C4
:1009A00000E000E0FEE770477047704710B5FFF7C2
:1009B0001DFD10BD30B591B030216846FFF7AFFB8B
:1009C00000240D94012003900E9402251020099418
:1009D000009504900F94C0030A900C9408950B9412
:1009E0006846FFF71DFE07200C9080200E900D95A5
:1009F00000210F940CA8FFF73BFD11B030BD0000A3
:100A0000134801680122114301604168114A1140F5
:100A100041600168104A114001600168012292049E
:100A20009143016041683F22120491434160C16AD1
:100A300009090901C162016BFF221432914301636C
:100A4000416B490849004163002181607047000003
:100A5000001002400CB8FF08FFFFF6FE0FB410B5FF
:100A600003A9044B044A029800F052F810BC08BCD9
:100A700004B01847630D0008080000208307FF2218
:100A8000DB0E9A408907090E9940002808DB83088D
:100A900009489B001B18186890430843186070476A
:100AA0000007000F0838830804489B001B18D8690A
:100AB00090430843D861704700E400E000ED00E097
:100AC00010B57F200021C005FFF7CAFB10BD10B58F
:100AD0000121FFF703FC10BD10B500210846FFF708
:100AE000BFFB10BD02E008C8121F08C1002AFAD1DE
:100AF00070477047002001E001C1121F002AFBD19E
:100B00007047000001490860704700000C00002099
:100B1000FFB58DB00446002506E025280AD0109ABE
:100B20000F999047641C6D1C20780028F5D1284649
:100B300011B0F0BD00270121484A009700E00743AB
:100B4000641C23780846203B98401042F7D1207857
:100B50002E2817D1042007436078641C2A280CD162
:100B60000E98641C02C800910E900BE000990A22B6
:100B7000514330394018641C0090207801463039C8
:100B80000929F3D920780028D1D0642808D0692811
:100B900006D075281ED0109A0F9990476D1C5BE007
:100BA0000A200E99019001C90E91002802DA4042F4
:100BB0002D2102E0390504D52B216A46117201214D
:100BC00003E0F90704D02021F7E70BAE0B910DE00D
:100BD0000021FAE70A200E99019001C90E91F7E76A
:100BE0000199FFF77FFA3031761E31700028F7D176
:100BF00003A8801B20300190780701D5009801E000
:100C0000012000900199884201DD401A00E0002097
:100C10000027009006E002A8109AC05D0F99904747
:100C20006D1C7F1C0B988742F5DB04E0109A302086
:100C30000F9990476D1C0099481E00900029F5DC23
:100C400005E03078109A761C0F9990476D1C019939
:100C5000481E01900029F4DC641C65E709280100A6
:100C6000F7B504468EB000690290A0680990E76865
:100C700010980790002006906068069988424CD929
:100C800000200F9D00900646019022E061693868BF
:100C9000FFF750FA25490390FFF7A5FA00F06AF82C
:100CA0000099FFF747FA0090099801682868FFF754
:100CB00092FA0146FFF797FA0399FFF7D1FA0199E3
:100CC000FFF738FA019009982D1D001D761C3F1D75
:100CD00009902068B042D9D8BF2109060098FFF7D3
:100CE00082FA05460021C9430198FFF7F7FA294621
:100CF000FFF775FA0546029802990068091D0291EE
:100D000000F038F82946FFF715FA079908600798A8
:100D1000001D07900698401CADE701460AAB0BAAE0
:100D2000109800F005F80A9811B0F0BDDB0FC9402B
:100D3000FFB540C881B000270446029D09E001CC00
:100D4000009001463046FFF7D5FA02D20298009E85
:100D5000471B6D1EF3D1039806600498076005B029
:100D6000F0BD38B504466846047069460320ABBE42
:100D7000204638BDF8B50121C9057F220026411A59
:100D8000120691427BD20121C9044118CA150123E0
:100D900041021B07C9184D0F7F217F3A2B05C9055A
:100DA000B6185C18D205871A3046284345D021462C
:100DB0003846FFF7BFF9009021463846FFF70BFA97
:100DC0000099FFF74DFA07460146FFF70CFA3E4936
:100DD0000090FFF708FA3D49FFF7ACF904463846A2
:100DE0000099FFF700FA2146FFF7FDF90446304667
:100DF000FFF7CBFA06463649FFF7F5F93549AD005E
:100E000079444959FFF796F92146FFF793F90446CB
:100E100001213846FFF762FA2146FFF78BF90446B5
:100E200030462D49FFF7DFF92C4979444959FFF73E
:100E300081F92146FFF77EF9F8BD3846FFF7CBF977
:100E400005462749FFF7CFF92649FFF773F92946E9
:100E5000FFF7C9F92449FFF76DF92946FFF7C3F9F0
:100E60002249FFF767F9044629460846FFF7BBF910
:100E70002146FFF7B8F901462846DBE7FFE7FF22E6
:100E800041001206914202D9FFF721FEF8BDFF2270
:100E9000D2059042FAD01402A04205D90120FFF7F2
:100EA00031FEFFF719FEF8BD410005D01626F643C6
:100EB0001721FFF713FA66E70220FFF723FEFFF77B
:100EC000FFFD6040F8BD000066F1CC3EAAAA2A3FB3
:100ED000F4FD0538EC0100000070313FA201000074
:100EE00021ED423E0A1180BEC1ABAA3EFFFFFFBE0C
:100EF00088B01D4802210160032141601B498160C7
:100F00001831C1601831016119494161FF20800524
:100F100001907F20C0050290FFF770FAFFF74AFDAD
:100F2000144842690121C9040A43426142690A40E6
:100F300007924269C9000A4342614069084007902C
:100F400003AA01A90848FFF78BFE6B4606AA0321F6
:100F500003A8FFF7EDFE08A00099FFF77FFD0A2028
:100F6000FFF730FAECE7000010000020840F0008C3
:100F7000C1BD943100100240436C617373203D2069
:100F800025640A00211BBA3F964D5F3FF86DC3BF31
:100F90006A38673FAA0F1DBE95FC3FC0FBCF803F5C
:100FA0008E5F673F93DF823F60E1463F09968F3F48
:100FB000637D9D3FABAAAA3EABAAAA3EABAAAA3EBE
:100FC00000000000000000000102030406070809F9
:100FD000000000000030F13D0070643E0000A33EC0
:100FE0000090CF3E0090F83E00400F3F00E0203FD1
:100FF0000000000015B78337CDE37B380EE1C5381C
:1010000060F69138AF5F0F38E1BC3E3823F44739C2
:10101000301000080000002010000000E40A000862
:10102000401000081000002018040000F40A000816
:101030000000000000127A00000000000000000024
:04000005080000B53A
:00000001FF
